:020000040800F2
:1000000058410020890200082D2F0008CD28000843
:10001000792D00081D110008D936000800000000E5
:10002000000000000000000000000000F1010008D6
:10003000E91100080000000035020008A1300008A6
:10004000A3020008A3020008A3020008A3020008FC
:10005000A3020008A3020008A3020008A3020008EC
:10006000A3020008A3020008A3020008A3020008DC
:10007000A3020008A3020008A3020008A3020008CC
:10008000A3020008A3020008A3020008A3020008BC
:10009000A3020008A3020008A3020008A3020008AC
:1000A000A30200082D310008A3020008A3020008E3
:1000B00039310008A3020008A3020008A3020008C7
:1000C000A3020008A3020008A3020008A30200087C
:1000D000A30200080936000815360008213600087A
:1000E000A3020008A3020008A3020008A30200085C
:1000F000A3020008A3020008A3020008A30200084C
:10010000A3020008A3020008A3020008A30200083B
:10011000A3020008A3020008A3020008A30200082B
:10012000A3020008A3020008A3020008A30200081B
:1001300000F002F800F04DF80AA090E8000C8244AC
:100140008344AAF10107DA4501D100F042F8AFF289
:10015000090EBAE80F0013F0010F18BFFB1A43F0A5
:1001600001031847F051000010520000103A24BF5C
:1001700078C878C1FAD8520724BF30C830C144BF0C
:1001800004680C607047000000230024002500264E
:10019000103A28BF78C1FBD8520728BF30C148BFEA
:1001A0000B607047642900F01B81782900F07F8183
:1001B000632900F0ED83002070471FB59DE8030020
:1001C00000F034FB00F028FC1FBD10B500F08DFCE2
:1001D00010BD00F0F8FC1146FFF7EFFF03F0D0FA76
:1001E00000F0D6FD03B4FFF7F0FF03BC00F00EFEF5
:1001F000224B19680868B0E8F00F80F30988BFF354
:100200006F8F4FF0000080F311884EF00D0E704795
:100210000000000006480068006880F3088862B6A5
:1002200061B6BFF34F8FBFF36F8F00DF00BF00BF1A
:1002300008ED00E0EFF30980BFF36F8F0F4B1A68F2
:1002400020E9F00F106008B54FF0500080F31188DE
:10025000BFF34F8FBFF36F8F04F0AEF84FF0000085
:1002600080F31188BDE8084019680868B0E8F00F0D
:1002700080F30988BFF36F8F704700BF48000020EC
:10028000EFF30580704700000948804709480047A0
:10029000FEE7FEE7FEE7FEE7FEE7FEE7FEE7FEE736
:1002A000FEE7FEE704480549054A064B7047000093
:1002B0002B31000831010008583B00205841002034
:1002C000583D0020583D002070B5064600F092FAD7
:1002D000056806F10B0020F00704B4429CBF002023
:1002E00070BD2B466A68BAB11068A04210D304F101
:1002F000080188423CBF5068586007D35168101904
:1003000041601168091B016058601460101D70BDC8
:1003100013465268002AE7D12146284600F072FAB7
:100320000028DED170BD70B50446051F00F062FAEA
:100330000068002C14BF446870BD002C18BFAC428C
:100340003CBF20466468F8D301680A18AA4218BF67
:10035000456003D12A6805461144016028684119A7
:10036000A1421CBF6C6070BD61686960216808446F
:10037000286070BD0FB4044910B503AA029800F0BC
:1003800013FB10BC5DF814FB503A002070B50C460E
:100390000546012A05D02878800600D5EA690023A1
:1003A00002E0012305E05B1C934202D2E05C0028DE
:1003B000F9D1A869E618C01AA861286A1844286209
:1003C0002846AFF3008004E0D5E9012114F8010BC1
:1003D0009047B442F8D32846AFF3008070BD0000C8
:1003E0002DE9F0410646002410687529314616A50E
:1003F00010D0AFF30080002802DA404213A507E0D6
:1004000031688A0701D512A502E0490704D511A574
:10041000012401E0AFF3008000210A2206F1240745
:1004200009E0B0FBF2FCB0FBF2F302FB1C00303041
:1004300078541846491C0028F3D123462A463046F2
:10044000BDE8F04100F028BA000000002D000000D7
:100450002B00000020000000F0B40D4601880905C3
:1004600002D5214C7C4402E01F4C7C440E34002118
:1004700000F1240608E002F00F071209E75D42EAE6
:1004800003721B097754491C52EA0307F3D102781F
:100490000023120704D5702D06D009B102231134B0
:1004A0002246F0BC00F0F8B901231034F8E770B52B
:1004B00004460D4621461068AFF3008002462946E7
:1004C0002046BDE870400023C6E7D21D22F0070396
:1004D000D3E90023C0E70368126843F020030360F8
:1004E0000823C3610023B7E7604E00002DE9F05FE9
:1004F000894604464FF0000ADFF874B1FB44C0F8A7
:1005000020A02046E1688847002874D0252806D01E
:10051000D4E901219047206A401C2062F1E70026BF
:100520005F462046E16888472028054607DB312DD5
:1005300005D2781910F8200C08B10643F1E7B0078E
:1005400001D526F00406C4F81CA00027C4F818A0A2
:100550002A2D09D0284603F0D0F838B304EB8708D9
:10056000303DC8F8185019E059F8041B204604EB38
:1005700087029161E1688847012F054618D1E0693B
:10058000002820DA26F020061DE0D8F8180000EB3D
:10059000800005EB40003038C8F818002046E168BC
:1005A0008847054603F0A9F80028EED1012F0AD0AC
:1005B0002E2D08D12046E16888477F1C0546022F72
:1005C00046F02006C4DBA069002803DA404246F06A
:1005D0000106A061F00701D026F010066C2D0BD0AB
:1005E000682D09D04C2D39D06A2D35D0742D35D0D9
:1005F0007A2D33D016E038E0E1682F462046884750
:10060000B842054609D16C2F26D04FF48060E168CE
:10061000064320468847054604E06C2F1AD04FF465
:10062000807006430DB3A5F14100192802D820358A
:1006300046F400664A462946204626604E46FFF7A5
:10064000B1FD80B101280BD0F61D26F0070000F1A6
:10065000080956E74020E4E78020D8E70020D6E7E5
:1006600006F104094DE7284652E7206ABDE8F09FED
:10067000F04D000010B5431C02E010F8011B71B1F1
:100680008107FAD14FF0013202C88C1A8C4314EA68
:10069000C211F9D0C01A0A0603D0C01E10BDC01A7C
:1006A00010BD0A0401D0801E10BD0902FCD0401EFE
:1006B00010BD032A40F2308010F0030C00F01580CA
:1006C00011F8013BBCF1020F624498BF11F801CB55
:1006D00000F8013B38BF11F8013BA2F1040298BFBA
:1006E00000F801CB38BF00F8013B11F0030300F024
:1006F0002580083AC0F0088051F8043B083A51F8C8
:1007000004CBA0E80810F5E7121D5CBF51F8043BCC
:1007100040F8043BAFF30080D20724BF11F8013B3F
:1007200011F801CB48BF11F8012B24BF00F8013BA1
:1007300000F801CB48BF00F8012B704710B5203AF4
:10074000C0F00B80B1E81850203AA0E81850B1E88A
:100750001850A0E81850BFF4F5AF5FEA027C24BF40
:10076000B1E81850A0E8185044BF18C918C0BDE837
:1007700010405FEA827C24BF51F8043B40F8043B00
:1007800008BF7047D20728BF31F8023B48BF11F8B5
:10079000012B28BF20F8023B48BF00F8012B70470F
:1007A0004FF0000200B5134694469646203922BF0A
:1007B000A0E80C50A0E80C50B1F12001BFF4F7AF55
:1007C000090728BFA0E80C5048BF0CC05DF804EB37
:1007D000890028BF40F8042B08BF704748BF20F8A5
:1007E000022B11F0804F18BF00F8012B70477047A3
:1007F0007047704700487047003B002070477047C3
:100800007047704738B504460A4600206946AFF382
:100810000080002808BF38BD02460099204600F03D
:10082000DDF8012038BD012000F092B9F8B5AFF332
:100830000080054600200C46102000BF0646A8197F
:10084000A0420DD9324669460020AFF30080070070
:1008500008BF00F07DF90098A04218BF0546C419F2
:10086000FFF7C8FF05600746F01D20F00700461996
:10087000284600F00AF8B44208BFF8BDA21B314672
:100880003868BDE8F84000F0A9B800210160C0E96F
:1008900001107047102070472DE9F0470D4699462A
:1008A0009246044600F124080168880604D5E069F0
:1008B00021F01001216000E00120A84201DD471B6A
:1008C00000E00027A1697A1902EB0900081AA0616B
:1008D0002078C00602D42046AFF30080002608E04E
:1008E000D4E901211AF806009047206A401C761CC2
:1008F00020624E45F4DB2078C0060AD52046AFF3CF
:10090000008006E0D4E9012130209047206A401C95
:100910002062381EA7F10107F4DC07E0D4E90121C9
:1009200018F805009047206A401C2062281EA5F197
:100930000105F3DC2046AFF300802078000602D5E5
:100940000220BDE8F0870120FBE7000001694A1C96
:1009500002610878704700B58FB0CDE90131002100
:10096000059105497944CDE9031011466846FFF722
:10097000BDFD0FB000BD0000E5FFFFFF10B54369EE
:1009800013B1AFF3008001E0FFF700FD012010BDBF
:10099000127800F124010A7000224A700122EDE76A
:1009A00011684FF0FF32E9E7074B70B50D467B4405
:1009B000FFF7D1FF0446284600F02AF810B14FF0A7
:1009C000FF3070BD204670BD572D000000487047B5
:1009D000F83A002000487047F83A00200346406883
:1009E0008C46002818BF88423CBF03464068F8D3B5
:1009F00018681844884207D00CF1030020F0070063
:100A0000001D411A521A0146081D0A60FFF78BBCEF
:100A1000007B00F08000704710B542485421FFF77A
:100A2000BFFE41485421FFF7BBFE40485421FFF769
:100A3000B7FE3F493B483C4A3F4B08603D490A608E
:100A40003A491960531C0365481C1065012008656C
:100A50003B48344A39A1784400F0FEF820B93848C0
:100A600078440A3800F0A2F937482F4A35A1784473
:100A700000F0F2F820B9344878440A3800F096F9CA
:100A800032482A4A2FA1784400F0E6F820B92F48CE
:100A900078440A3800F08AF940232248DC0000211B
:100AA000224600F0B5F820B125487844543800F0CB
:100AB0007DF91D4822464023002100F0A9F820B10D
:100AC00021487844543800F071F918482246102320
:100AD000002100F09DF8002806D01C487844BDE8AD
:100AE0001040563800F062B910BD104870B5006D66
:100AF00020F001040B4800F025F90B4800F022F922
:100B00000A4800F01FF909E0206D20F00105204699
:100B100000F018F92046FFF706FC2C46002CF3D114
:100B200070BD0000FC390020503A0020A43A00209B
:100B3000A8000020AC000020B000002072000000DF
:100B4000A748000077000000934800007F4800009D
:100B500010B500F033F9BDE8104000F022B90EB531
:100B6000CDE90001FFF786FD029069460120ABBE8A
:100B70000EBD08B5694600900220ABBE08BD1FB58A
:100B80008DE8070069460520ABBE04B010BD1FB557
:100B90008DE80F0069460620ABBEF6E708B569464A
:100BA00000900920ABBE08BD1CB5CDE90001694627
:100BB0000A20ABBE1CBD704708B5694600900C20EA
:100BC000ABBE08BD70477546FFF700FFAE46050097
:100BD0006946534620F00700854618B020B5FFF758
:100BE00061FBBDE820404FF000064FF000074FF0DA
:100BF00000084FF0000B21F00701AC46ACE8C0093B
:100C0000ACE8C009ACE8C009ACE8C0098D46704743
:100C100070B5C468A50713D0650211D4B2F5807F02
:100C200009D0B2F5007F06D0B2F5806F08D101235C
:100C300000F1240106E05D1E6FF07F46B54201D34E
:100C4000012070BD0161C361416024F470611143F2
:100C5000C160002070BD00002DE9F0410C46074640
:100C60001646104600F06EF82078611C61280AD004
:100C7000722802D077283CD102E00125002405E04B
:100C80000225042402E0082448F2020511F8010BB1
:100C90002B2806D0622809D011F8010C74280AD03C
:100CA0000BE045F0030544F00204EFE745F00405CE
:100CB00044F00104EAE744F0100438462146FFF707
:100CC0004EFF411C15D00021316171604FF400715D
:100CD000F560F1617061200704D5304602220021E1
:100CE00000F09AF8306D40F0010030653046BDE804
:100CF000F0810020FBE72DE9F0410D460646104C3F
:100D0000206DC10704D0410804D020F00104F7E7AA
:100D100022460EE05420FFF7D7FA07000ED0206DD0
:100D200047F001010843542120653846FFF738FD9C
:100D30003A4629463046BDE8F0418DE70020D6E727
:100D4000FC3900202DE9F04704464FF000094FF030
:100D5000FF37C568D4E90486A80707D0204600F00D
:100D60000BF93046FFF705FF002802DA3846BDE8E8
:100D7000F087280502D54046FFF7D5FA4C212046DA
:100D8000FFF70EFD206D20F0010020654846EEE7DC
:100D900010B50446AFF300802046BDE81040FFF7D1
:100DA00021BA002801D000F031B8704710B500F02A
:100DB00041F9BDE81040FFF7F4BF000010B501286D
:100DC00005D0002103A000F01BF9012010BD09A1EE
:100DD000F8E7000053494752544D454D3A204F75AE
:100DE00074206F662068656170206D656D6F727923
:100DF000000000003A2048656170206D656D6F72DB
:100E00007920636F727275707465640001491820EF
:100E1000ABBEFEE7260002002DE9F041044616466F
:100E20000D464769007B80072ED03846FFF7B6FE97
:100E300050BB3EB3012E02D0022E25D104E0204645
:100E400000F019F905441DE03846FFF7B5FEE168EA
:100E5000002841F01001E16005DA204600F058F862
:100E60000120BDE8F081C9030BD56268E16A9142B7
:100E700000D81146A26911442269891A814200DD15
:100E800008460544002D01DA0220EAE7E16A6068BD
:100E9000E268814206D29103E06203D522F4003178
:100EA00041F01002A6690027AE4213DCE16A8142DC
:100EB00001D90B4600E0034603EB060C2369ACEBBB
:100EC000030CAC4506DD814201D98C4600E0844626
:100ED0009C4505D1A760276042F02000A5620DE087
:100EE000AD1BE669AE1B8142A66000D90846C01A58
:100EF000281A20605819606022F020000349084039
:100F0000E060002084F84870ABE70000BFCFD7FF57
:100F1000C16821F4001141F08001C16000218160AD
:100F2000016070472DE9F047814614460E464FF0A8
:100F3000FF383248D5685769054209D03846A1695B
:100F4000FFF732FE002811DB2C48C0430540E56066
:100F50002B46324649463846FFF711FEA16920F07C
:100F60000042B21A11440028A16103D02046FFF7C5
:100F7000CFFF4046BDE8F08770B504460569C06AFA
:100F80006168884200D80846E16821F42011E160D8
:100F9000C90312D5A84208D02246411B2846FFF7B4
:100FA000C1FF10B14FF0FF3070BD0020E562C4E911
:100FB0000150E06820F48030E060002070BD10B582
:100FC0000446C06820F02000E060A16AA069884261
:100FD0000DD02046FFF7D0FFE06820F4405040F0ED
:100FE0001000E060A06AA0612069E062606044F2E5
:100FF0004001E0688843E06010BD0000100002007E
:1010000070B505460C460A2000E06D1C00F02CF877
:1010100035B128780028F8D102E0641C00F024F8EB
:1010200014B120780028F8D1BDE870400A2000F003
:101030001BB8000010B5014602A0FFF7E1FF012038
:1010400010BD000053494752545245443A2052655E
:101050006469726563743A2063616E2774206F70EF
:10106000656E3A200000000008B569468DF8000062
:101070000320ABBE08BD10B50146C268900703D07F
:10108000900607D5886A0AE0FFF7A4FC01210160F9
:10109000881E10BD8B69486818440B69C01A91F806
:1010A00048301BB191F84910401A10BD1103FCD50E
:1010B0000028FADD401E10BD0EB5002501260E4C9D
:1010C000DFF838804FF0FF3903274FF4FA6A2670B3
:1010D00065704A466846E16902F0C8FBDDE9000137
:1010E000102804D188F8007005A0FFF743F9504696
:1010F00002F09CFBEBE70000140000200000002041
:10110000424C45207461736B207265616420517597
:101110006575653A2025640A00000000FEE70000BE
:1011200070B5094DFF22134605F5807606E000BF35
:1011300010F8014B54402A5D5A40335D491E89B274
:10114000F6D243EA022070BD045000080EB5002418
:101150001A4DA0464FF00109671E4FF47A7A00BF7E
:1011600085F8008085F801903A466846A96902F042
:101170007DFBDDE9000610280AD111490320087023
:1011800010A03168FFF7F6F83146686802F04AFCB3
:10119000E00704D13A463168E86902F0B1FB3A460B
:1011A0003168286A02F0ACFB641C04EBD47020F0B8
:1011B0000100241A504602F039FBD1E71400002048
:1011C0000000002044617461204D616E61676572AA
:1011D000207461736B20726561642051756575655B
:1011E0003A2025640A000000704772B6FEE710B589
:1011F00090F821100022022905D00421816380F893
:101200002020012010BD01680B6823F00E030B6045
:1012100001680B6823F001030B6090F84030C46B49
:10122000012101FA03F3636080F8211080F8202087
:10123000104610BD2DE9F05F90F82110002402291E
:1012400003D004218163012485E001680A6822F04B
:101250000E020A6001680A6822F001020A603F4E2D
:101260003E4FB215DFF8F4C0DFF8F090DFF8ECA0E5
:10127000DFF8E8B0DFF8E4E00168783F1301150219
:10128000ACF1640CA9F15009AAF13C0AABF1280BAE
:10129000AEF1140E4FF48018B14227D9B9420ED0E6
:1012A000614512D049451DD0514518D0594518D037
:1012B000714501D1424615E0294EB14201D10122CA
:1012C00010E0274E1436B14201D110220AE0244E1C
:1012D0002836B14206D0224A3C32914201D11A4608
:1012E00000E02A461E49091F0A602BE0B94213D0CC
:1012F000614517D0494522D051451DD059451DD0D3
:10130000714501D142461AE0B14202D14FF08072DC
:1013100015E0134EB14201D1012210E0104E1436F7
:10132000B14201D110220AE00D4E2836B14206D05A
:101330000B4A3C32914201D11A4600E02A46074945
:1013400080394A60012180F82110002180F82010A6
:10135000416B01B188472046BDE8F09F8000024004
:10136000080402402DE9F84FDFF8C891002409F184
:10137000040A0AF1040B23460F270BF1040ED1E0F7
:101380000125A54006EA0502AA4276D1DFF8A8C1E8
:101390004E68A6EB0C0866452BD00DDC032E34D02E
:1013A00005DC36B3012E19D0022E2FD11BE0112EF1
:1013B00016D0122E2AD119E0B8F5881F19D006DCF4
:1013C000B8F5803F15D0B8F5801F1FD111E0B8F5F2
:1013D000001F0ED0B8F5041F18D10AE0CB6815E045
:1013E000CB681B1D12E0CB6808330FE0CB680C33D1
:1013F0000CE08B682BB1012B4FF0080303D0456143
:1014000004E0042302E0056100E00023FF2A01D884
:10141000064601E000F104064FEA840501D9A5F172
:101420002005D6F8008007FA05FC28EA0C0803FA24
:1014300005F548EA0508C6F800804D68ED0070D54E
:101440003E4DAE6946F00106AE61AD6924F003067B
:1014500005F0010500953A4D06EB050CDCF8085047
:10146000A607360F07FA06F825EA0805DFF8D48044
:10147000404503D14FF0000825E052E0DFF8C88076
:10148000404502D14FF001081DE0DFF8C080404523
:1014900002D14FF0020816E0DFF8B480404502D1D7
:1014A0004FF003080FE0DFF8AC80404502D14FF069
:1014B000040808E0DFF8A080404502D14FF005089D
:1014C00001E04FF0060808FA06F848EA0508CCF8EB
:1014D00008804D68D9F80060ED034D4601D51643EC
:1014E00000E096432E604D68DAF80060AD03554683
:1014F00001D5164300E096432E604D68DBF800608E
:10150000ED025D4601D5164300E096432E604D681E
:10151000DEF80060AD02754601D5164300E0964343
:101520002E60641C0A681646E2407FF429AFBDE8CD
:10153000F88F00000004014000001110001002406C
:101540000000014000080140000C01400010014073
:101550000014014000180140001C01400AB1016163
:1015600070470904FBE700000148806870470000ED
:101570003800002002488168027811448160704779
:1015800038000020074810B5016841F010010160E3
:10159000032000F097F80F2000F006F800F04AF85A
:1015A000002010BD0020024030B505461C4887B021
:1015B000816941F400618161806906A900F40060DD
:1015C000009001A800F026F900F054F91549164AD8
:1015D000B0FBF1F11548491E0260416040F2E7326C
:1015E0000021C0E903218160816100F059FB040002
:1015F00012D10E4800F0AAFB04000DD1192000F012
:1016000033F8102D07D200222946192000F03AF8AD
:101610000748056000E0012407B0204630BD000007
:101620000010024040420F00002C0140DC28002046
:101630003C0000200B4882B0816941F001018161CA
:10164000816901F001010091C16941F08051C161DE
:10165000C069002200F0805000900F21901E02B05F
:1016600000F010B800100240002809DB00F01F0253
:10167000012191404009800000F1E020C0F80011F4
:1016800070470000F0B40E4B1B680C46C3F30223F6
:10169000C3F10705042D00D90425191D072901D21E
:1016A000002300E0DB1E012606FA05F1491E214059
:1016B00099409E40761E16403143F0BC02F00DB8B2
:1016C0000CED00E0064900F0070208684FF6FF0342
:1016D000184040EA0220034A1043086070470000A7
:1016E0000CED00E00000FA052DE9F0470F4605007B
:1016F00061D0434E306800F00700B84209D230682C
:1017000020F0070038433060306800F00700B8422E
:1017100051D128683B4C810712D5400703D560683A
:1017200040F4E06060602878000703D5606840F40A
:10173000605060606068A96820F0F0000843606055
:101740002878C00728D06868012810D021680228AE
:1017500010D0890700292EDA616821F003010143C6
:101760006160FFF701FF804641F288390DE0216892
:101770008903EFE78901EDE7FFF7F6FEA0EB08012B
:10178000494502D90320BDE8F0876068696800F028
:101790000C00B0EB810FEFD1306800F00700B842C9
:1017A0000BD9306820F0070038433060306800F013
:1017B0000700B84201D00120E5E72878400705D5A9
:1017C0006068E96820F4E0600843606028780007FA
:1017D00006D56068296920F4605040EAC100606065
:1017E00000F058F86168084AC1F30311515CC84021
:1017F0000649086006480068FFF7D6FE0020C2E7E9
:101800000020024000100240B052000844000020B6
:101810003C0000200F2202600C4A536803F00303CF
:101820004360536803F0F0038360536803F4E0639C
:10183000C36052684FF4E06303EAD20202610448D5
:10184000006800F0070008607047000000100240C8
:10185000002002400448054900684968044AC1F371
:101860000221515CC8407047440000200010024033
:10187000C05200080448054900684968044AC1F399
:10188000C221515CC8407047440000200010024053
:10189000C052000812A185B00FC98DE80F0014A036
:1018A000144A006804905168134801F00C03042B9B
:1018B00010D0082B0ED1C1F38343C9031DF80300D8
:1018C0000AD5516804AAC1F34041515C0A4A504309
:1018D000B0FBF1F005B0704708494843FAE7000053
:1018E00002030405060708090A0B0C0D0E0F101061
:1018F000010200000010024000127A0000093D00C1
:101900002DE9F84F040070D02078C04DC00749D0B1
:101910006868C0F38100012807D06868C0F38100BF
:10192000022809D16868C00306D52868800339D524
:1019300060680028E7D035E06068B0F5803F0BD0E4
:1019400010B1B0F5A02F11D0286820F480302860A5
:10195000286820F4802002E0286840F48030286065
:10196000606890B1FFF700FE06460AE0286840F480
:1019700080202860F0E700BFFFF7F6FD801B642899
:1019800073D828688003F7D50CE0FFF7EDFD064615
:1019900005E000BFFFF7E8FD801B6428F0D8286849
:1019A0008003F7D420789A4E80074FF001094FF05A
:1019B000000839D5686810F00C0F07D06868C0F3CC
:1019C0008100022809D16868C00306D4286880070E
:1019D00014D52069012808D110E02069B0B1C6F8FB
:1019E0000090FFF7C1FD074605E00AE1FFF7BCFDE7
:1019F000C01B0228C4D828688007F7D52868616909
:101A000020F0F80040EAC10028600DE0C6F8008030
:101A1000FFF7AAFD074604E0FFF7A6FDC01B02285A
:101A200023D828688007F7D4207800072CD5794878
:101A3000A169D9B1C0F80090FFF796FD074604E010
:101A4000FFF792FDC01B02280FD8686A8007F7D500
:101A500071484FF4FA510068B0FBF1F0009000BFFC
:101A60000098411E0091FAD20EE080E0C0F800809C
:101A7000FFF77AFD074604E0FFF776FDC01B02285A
:101A800075D8686A8007F7D42078400760D5E86980
:101A90000027C00008D4E86940F08050E861E86998
:101AA000012700F0805000905C480168C90513D4FC
:101AB0000168834641F480710160FFF755FD82465D
:101AC00006E000BFFFF750FDA0EB0A0064284ED8E7
:101AD000DBF80000C005F5D5E06801280AD008B1A0
:101AE000052813D0286A20F001002862286A20F017
:101AF000040002E0286A40F001002862E06841F238
:101B0000883B98B1FFF730FD82460BE0286A40F031
:101B100004002862EEE700BFFFF726FDA0EB0A01F4
:101B200059455AD8286A8007F6D50CE0FFF71CFD06
:101B3000824605E0FFF718FDA0EB0A0159454CD895
:101B4000286A8007F6D41FB1E86920F08050E86168
:101B5000E06988B36968C1F38101022944D0022891
:101B6000C6F8608004D0FFF7FFFC044638E034E09C
:101B7000FFF7FAFC074604E0FFF7F6FCC01B02285B
:101B80002BD828688001F7D4206AB0F5803F05D1B2
:101B90006868A16820F4003008436860D4E908014F
:101BA0000843696821F4741108436860C6F86090BE
:101BB000FFF7DAFC044606E025E000BFFFF7D4FC9F
:101BC000001B022809D828688001F7D51BE000BF58
:101BD000FFF7CAFC001B022802D90320BDE8F88FDA
:101BE00028688001F4D40EE00128F7D06868226AE2
:101BF00000F48031914204D1616A00F4701088428F
:101C000001D00120EAE70020E8E7000000100240D0
:101C10000000424280044242440000200070004024
:101C20007047704770B590F83C20012A2CD00124F1
:101C300080F83C40022280F83D2003685A689D6885
:101C400022F070060A6832435A60104B02689A42CA
:101C50000ED00F4B9A420BD0B2F1804F08D00D4BF3
:101C60009A4205D00C4B9A4202D00C4B9A4204D1B6
:101C7000496825F080031943916080F83D400021B8
:101C800080F83C10084670BD022070BD002C014059
:101C9000003401400004004000080040000C0040F7
:101CA00010B5040003D094F83D0010B107E0012006
:101CB00010BD002084F83C00204600F01FF80220F0
:101CC00084F83D00211D206801F03CFA012084F8D1
:101CD000460084F83E0084F83F0084F8400084F811
:101CE000410084F8420084F8430084F8440084F8FA
:101CF000450084F83D00002010BD000008B50168D3
:101D00001048B1F1804F0BD00F4A914207D1C16901
:101D100041F00201C161C06900F00200009008BDFD
:101D2000C16941F00101C161C069002200F00100F8
:101D3000009006211C20FFF7A5FCBDE808401C20F0
:101D4000FFF792BC001002400004004090F83D10E4
:101D5000012901D001207047022180F83D1001685F
:101D6000CA6842F00102CA6000680E4988420ED07B
:101D70000D4988420BD0B0F1804F08D00B49884202
:101D800005D00B49884202D00A49884204D18168B3
:101D900001F00701062903D0016841F0010101604B
:101DA00000207047002C0140003401400004004036
:101DB00000080040000C00400168CA6822F00102DF
:101DC000CA6001680A6A41F211131A4207D10A6A0D
:101DD0009B101A4203D10A6822F001020A60012115
:101DE00080F83D100020704770B5044690F83C0024
:101DF000012817D0012584F83C50022084F83D00CA
:101E00002068826822F0770222F47F4282600868AC
:101E1000502830D00DDC20284DD005DC98B3102898
:101E20003BD148E0022070BD302844D0402834D156
:101E300039E0602828D0702806D0B0F5805F2CD01B
:101E4000B0F5005F29D10AE0CB68D1E90121206813
:101E500001F0BEF92068816841F0770109E0CB68A4
:101E6000D1E90121206801F0B3F92068816841F4CB
:101E70008041816011E0CA684968206801F07CFAFD
:101E80005021206807E016E0CA684968206801F020
:101E900084FA6021206801F0A5F984F83D50002003
:101EA00084F83C0070BDCA684968206801F064FA93
:101EB00040212068EFE7226801461046EBE77047B3
:101EC00070B50446006801694FF00005C9438907F1
:101ED00015D4C168C943890711D4E91E01610120E5
:101EE0002077206880698007204602D0FFF7E7FF4F
:101EF00004E000F0BFF8204600F04EF92577206896
:101F00000169C943490717D4C168C943490713D4B4
:101F10006FF004010161022020772068806910F4CD
:101F2000407F204602D0FFF7CAFF04E000F0A2F88D
:101F3000204600F031F9257720680169C943090777
:101F400016D4C168C943090712D46FF008010161B2
:101F5000042020772068C0698007204602D0FFF760
:101F6000AEFF04E000F086F8204600F015F9257772
:101F700020680169C943C90617D4C168C943C906A5
:101F800013D46FF010010161082020772068C06928
:101F900010F4407F204602D0FFF791FF04E000F0EC
:101FA00069F8204600F0F8F8257720680169C943F0
:101FB000C90708D1C168C943C90704D1891E016195
:101FC000204600F0EBF820680169C943090609D4EE
:101FD000C168C943090605D46FF08001016120463C
:101FE000FFF71EFE20680169C943490609D4C1688C
:101FF000C943490605D46FF040010161204600F055
:1020000009F920680169C94389060BD4C168C9432D
:10201000890607D46FF0200101612046BDE87040B9
:10202000FFF7FFBD70BD000000B585B00021009135
:1020300001910291039100680B49884211D10B482C
:10204000816941F0040181618069694600F0040002
:102050000490402000900220019003900448FFF774
:1020600081F905B000BD00000004004000100240EE
:1020700000080140704770B5044690F83C000D46DA
:1020800001280AD0012084F83C0042B1042A18D06B
:10209000082A2AD00C2A4DD139E0022070BD2068D0
:1020A00001F0A8F82068816941F008018161206889
:1020B000816921F004018161206881692A691143E5
:1020C00011E0206801F0C6F82068816941F40061E0
:1020D00081612068816921F4806181612068816962
:1020E0002A6941EA0221816124E0206801F0E8F8D0
:1020F0002068C16941F00801C1612068C16921F00F
:102100000401C1612068C1692A69114311E0206896
:1021100001F00AF92068C16941F40061C1612068D9
:10212000C16921F48061C1612068C1692A6941EAFD
:102130000221C161002084F83C0070BD10B504008C
:1021400003D094F83D0010B107E0012010BD00203D
:1021500084F83C00204600F01EF8022084F83D0080
:10216000211D206800F0EEFF012084F8460084F86D
:102170003E0084F83F0084F8400084F8410084F871
:10218000420084F8430084F8440084F8450084F851
:102190003D00002010BD70477047000070B5044638
:1021A00000681449884201D1FFF7E4F92068B0F1D2
:1021B000804F1ED1012280210F48FFF7CFF90F4831
:1021C000012505700E4805702168002048622046F0
:1021D000FFF7F2FD0B48006820B1BDE87040022116
:1021E00001F038BC08480570BDE8704007A0FEF754
:1021F000C1B870BD002C0140001401400200002055
:102200000700002024000020000000204552524F0B
:1022100052210A007047704738B5044600680B49E0
:10222000884211D1012220210948FFF797F920683F
:1022300001684068009001B02046BDE830400123AD
:102240001A46044900F0DAB938BD000000480040E1
:10225000000C014016000020F8B502680446106822
:10226000D168536910F00F0F4FF0000553D003F001
:10227000010601F4907737435FD0C20705D0CA0545
:1022800003D5226C42F001022264420705D5DA0729
:1022900003D0226C42F002022264820705D5DA07DD
:1022A00003D0226C42F004022264020707D501F039
:1022B0002002324303D0226C42F008022264226CD6
:1022C000002A34D0800604D5880602D5204601F0C5
:1022D00096F820684069216CC0F38010090700D48B
:1022E00030B3204601F073F82068416949061BD5D8
:1022F000416921F040014161A06BA8B15849416397
:10230000A06BFEF797FF002811D0A06B416B01B0C6
:10231000BDE8F040084783060FD58B060DD5204653
:10232000BDE8F84001F06BB82046FFF775FFF8BD37
:102330002046FFF771FF2564F8BD266B2023012E90
:1023400052D1C60650D5CE064ED5106850680090C2
:10235000506940062AD5A16B086840680004000C4B
:10236000EAD0A68D8642E7D9E0858869202818D072
:10237000D06820F48070D0602068416921F00101AC
:1023800041612068416921F04001416184F83E309B
:1023900025632068C16821F01001C160A06BFEF7C1
:1023A00026FFA08DE18D401A81B219E0A08DE18D4C
:1023B000401A81B2E08D0028BED00029BCD0D06880
:1023C00020F49070D0602068426922F001024261DE
:1023D00084F83E3025632068C26822F01002C26093
:1023E0002046FFF718FFF8BD05062BD50D0629D5A9
:1023F00094F83D002128F6D1A068B0F5805F01D1A6
:102400002069B0B1206A411C2162216800784860CF
:10241000E08C401E0004000CE084E4D12068C16818
:1024200021F08001C1602068C16841F04001C160B5
:10243000F8BD206A0088C0F308005060206A801C44
:102440002062E5E74006F3D54806F1D5D16820467D
:1024500021F04001D16084F83D3000F036FAF8BD3B
:10246000BF33000870B5040004D094F83D00002587
:1024700010B106E0012070BD84F83C50204600F009
:1024800023F8242084F83D002068C16821F400511D
:10249000C160204601F00EF82068016921F49041E6
:1024A00001612068416921F02A0141612068C16809
:1024B00041F40051C1602564202084F83D0084F877
:1024C0003E00002070BD0000F0B585B000240094EF
:1024D0000194029403940368424F0220424903226C
:1024E000424D4602BB4225D18B6943F480438B6148
:1024F0008B6903F4804304938B6943F004038B617D
:102500008969039201F0040104910102CDE90010F0
:1025100069462846FEF726FFCDE90064694628464D
:102520000294FEF71FFF002205212520FFF7AAF8DD
:10253000252028E02E4FBB4229D1CB6943F400333C
:10254000CB61CB6903F4003304938B6943F004033C
:102550008B618969039201F0040104910421CDE9A2
:10256000001069462846FEF7FDFE0820CDE900046C
:10257000694628460294FEF7F5FE00220521262032
:10258000FFF780F82620FFF76FF805B0F0BD194D72
:10259000AB42FAD1CB6943F48023CB61CB6903F41E
:1025A000802304938B6943F008038B618969124D82
:1025B00001F00801CDE90321CDE900606946284614
:1025C000FEF7D0FEE814CDE90004694628460294DF
:1025D000FEF7C8FE002205212720FFF753F8272029
:1025E000D1E700000038014000100240000801401F
:1025F0000044004000480040000C01402DE9F84F25
:10260000044690F83E009A4616460D46202853D1BF
:10261000FDB1F6B194F83C0001284DD0012084F8BA
:102620003C0000272764222084F83E002763FEF741
:102630009BFFA6858146E685A0684FF480584045FB
:1026400001D1206940B12E465FF0000584F83C704E
:1026500027E00120BDE8F88F0026F7E74B4600226F
:1026600020212046CDF800A000F09BFF08B10320F8
:10267000F0E726B1A06840451BD038B108E02068DB
:102680004068C0F3080025F8020B07E0206980B11C
:102690002068406800F07F0006F8010BE08D401EC6
:1026A000E085E08D0028D9D1202084F83E0000206C
:1026B000D0E720684068EFE70220CBE790F83E3093
:1026C000202B0ED159B152B190F83C30012B08D0DB
:1026D000012380F83C300023036300F047BF012052
:1026E00070470220704700002DE9F8430446006857
:1026F0003D49DFF8F8803E4D3E4E002740F2FF395D
:1027000088421ED13046FFF721FBB8F8001440463E
:10271000C1F30E024A450DD22A78B0F80014B0F881
:1027200000C4C1F30E014318491C61F30E0CA0F85C
:1027300000C41A7001222E492F48FFF7BFFF3068EE
:1027400047622E49206888421ED12A48FFF7FEFAC8
:10275000B8F800144046C1F30E024A450DD22A785B
:10276000B0F80014B0F800C4C1F30E014318491CBE
:1027700061F30E0CA0F800C41A7001221C49204815
:10278000FFF79CFF306847621E492068884229D1C4
:102790001D4800680068C043400708D000211B4A5C
:1027A00040F2FF731088984210D229B10EE0184A07
:1027B000012102201070F2E7164B29781954401CB1
:1027C0001080306847620B48FFF7C0FA0A4800687B
:1027D000016840680090BDE8F843012204490A48B6
:1027E000FFF76CBFBDE8F88300480040B40000204C
:1027F0001600002080270020982800200038014083
:102800001028002000440040542800200C00002024
:1028100007000020BC0400202DE9F843044690F88E
:102820003D001F4616460D4620284CD1C5B1BEB10D
:1028300094F83C00012846D0012084F83C004FF079
:102840000008C4F84080212084F83D00FEF78CFE8B
:10285000A6848146E684A068B0F5805F03D004E0DA
:102860000120BDE8F883206928B12E465FF00005FD
:1028700084F83C800EE00026FAE78021204600F034
:1028800090FEA0B9AEB116F8010B21684860E08C4B
:10289000401EE084E08C4B464FF000020097002879
:1028A000EBD14FF04001204600F07BFE30B1032019
:1028B000D7E735F8020BC0F30800E6E7202084F8DC
:1028C0003D000020CDE70220CBE77047FEE7000087
:1028D00030B52F4DABB01CAC95E80F0084E80F006D
:1028E00000211CA800F0AEFF2A4C10350DF1800C21
:1028F000A06195E80F008CE80F00002120A8103D92
:1029000000F0A0FF2035E06195E80F000DF1900C7C
:10291000203D8CE80F00002124A800F093FF303503
:10292000206295E8070028AB83E8070028A801F09B
:102930004AF860601C2205F10C016846FDF7FEFEB6
:102940000021684601F0DFF8A0601C2205F1280193
:1029500007A8FDF7F3FE002107A801F0D4F8E06016
:102960001C2205F144010EA8FDF7E8FE00210EA887
:1029700001F0C9F820611C2205F1600115A8FDF7DE
:10298000DDFE002115A801F0BEF860612BB030BD5E
:1029900004520008140000202DE9F04F85B00026F5
:1029A00057480096019602960396816941F04001CE
:1029B0008161816901F040010491816941F0100158
:1029C0008161816901F010010491816941F0800108
:1029D0008161816901F080010491816941F0040104
:1029E0008161816901F004010491816941F008016C
:1029F0008161816901F008010491816941F480716C
:102A00008161816901F480710491816941F0200143
:102A100081618069DFF8EC9000F0200004900022D2
:102A200006214846FEF79AFDDFF8DCA000221021BF
:102A30005046FEF793FDDFF8D4B0002280215846BF
:102A4000FEF78CFD012220213148FEF787FD4FF66D
:102A5000FF780324CDE9008469462E48FEF782FC06
:102A60004FF6F970CDE9000469464846FEF77AFC56
:102A7000CDE9008469462848FEF774FC062001254C
:102A800002278DE8E10069464846FEF76BFC4FF6E9
:102A9000A310CDE9000469465046FEF763FC102000
:102AA000CDE90005CDE9025769465046FEF75AFCCC
:102AB0004FF2DF30CDE9000469461548FEF752FCBD
:102AC000CDE9008469461548FEF74CFC4FF67F704F
:102AD000CDE9000469465846FEF744FC80208DE8A5
:102AE000E10069465846FEF73DFC20208DE8E100F4
:102AF00069460748FEF736FC05B0BDE8F08F0000D8
:102B00000010024000100140000801400014014084
:102B1000000C014000180140001C01400020014051
:102B200030B587B00025184C0095019502950395A6
:102B300004954FF080400595206041F61F40C4E9A0
:102B400001051320C4E903052046A561FFF7A8F895
:102B500008B1FEF74AFB4FF48050009069460A48DE
:102B6000FFF742F908B1FEF740FB049504A90648B7
:102B70000595FFF757F808B1FEF737FB21686FF0AE
:102B80000100086107B030BD8027002010B58EB06D
:102B900000240794089409940A940B941C21684615
:102BA0000C94FDF7FDFD1E481C4901604721C0E95A
:102BB00001142721C0E903148461FFF771F808B1FB
:102BC000FEF713FB4FF48050079007A91448FFF756
:102BD0000BF908B1FEF709FB1148FFF7AFFA08B18E
:102BE000FEF703FB0B940BA90D480C94FFF71AF8A2
:102BF00008B1FEF7FAFA6020CDE900040294002241
:102C0000694607480494FFF736FA08B1FEF7EDFA73
:102C10000348FFF709FA0EB010BD000000040040A1
:102C2000C82700200C4810B50A4901604FF4E13173
:102C30004160002181600C22C160C0E90412816101
:102C4000C161FFF70FFC002803D0BDE81040FEF77C
:102C5000CCBA10BD00380140102800200C4810B537
:102C60000A4901604FF496414160002181600C22C5
:102C7000C160C0E904128161C161FFF7F3FB002864
:102C800003D0BDE81040FEF7B0BA10BD00440040CC
:102C90005428002010B5104C0E480C2120604FF431
:102CA000E13060600020A060E060C4E90401A06140
:102CB000E0612046FFF7D6FB08B1FEF796FA2068E0
:102CC000C16841F01001C1602068C16841F0200175
:102CD000C16010BD004800409828002010B50B4C82
:102CE000207003206070080AA070E170100A207143
:102CF000627106212046FEF713FA010AA171E07104
:102D00002046BDE81040082100F084B9BC0C00202A
:102D100010B5012A19D10D4C207006206070080AE8
:102D2000A0700B48E17030F81100010A2171607148
:102D300006212046FEF7F4F9010AA171E071204650
:102D4000BDE81040082100F065B910BDBC0C0020A2
:102D5000541D002030B41446032906D0062909D199
:102D6000214630BC1A46FFF7D3BF214630BC1A4675
:102D7000FFF7B4BF30BC7047FEE700002DE9F04715
:102D80002A492B4E4FF0000A88784208B089A0F5F6
:102D90001C40403885B2A818B0F57A7F40D2002098
:102DA000244C0BE001EB40072B1897F803C03F7948
:102DB000401C07EB0C2724F81370C0B29042F1D3EB
:102DC000DFF874904FF0010804EB450789F80080A4
:102DD0007A8834F8151019A0FDF7CCFA89F800802C
:102DE0007A8834F815101AA0FDF7C4FA34F81500E3
:102DF000798889F8008001EB004421461BA0FDF78B
:102E0000B9FA1D48006800F0A9FD014604601B489E
:102E10004FF0FF32006800F073FD86F804A001E077
:102E20000320307186F803A0BDE8F087BC040020C1
:102E300002000020841500200000002068696768F7
:102E40003A2025642C206C6F773A2025640A000014
:102E5000686967685F30783A202530782C206C6F7D
:102E6000775F30783A202530780A000076616C75FB
:102E7000653A2025640A0000180000202C0000207C
:102E80000848094A808841BA0848838932F81330D3
:102E900000228B4201D1027101E006210171C27052
:102EA00070470000BC040020541D002002000020D8
:102EB00006480022808841BA0548C389994201D159
:102EC000027101E010210171C2707047BC04002042
:102ED000020000200EB50C4C0C4E4FF0FF370325BE
:102EE0004FF47A783A466846216A00F0BFFCDDE983
:102EF0000001102803D1357005A0FDF73BFA4046CC
:102F000000F094FCEEE70000140000200000002018
:102F10004D6F746F72207461736B207265616420F1
:102F200051756575653A2025640A0000FEE70000CA
:102F3000FEB54FF0FF320221684600F0B9FD324C79
:102F4000207801285FD1314D6178002628788842A9
:102F500051D168780E2701281AD0022818D00328EA
:102F600016D0052814D0062812D00F2810D010280B
:102F70000ED081282CD082282AD0832828D08528DA
:102F800026D0862824D08F2822D0902820D032E046
:102F90006089801E81B21D48FEF7C2F8618929440C
:102FA00031F8021C49BA884210D16878032804D04D
:102FB000062805D010281ED105E0FFF7DFFE1AE035
:102FC000FFF75EFF17E0FFF773FF14E0277112E0D1
:102FD000A878012806D0022806D0032807D00428A4
:102FE00008D106E00B2000E00C20207102E00D204B
:102FF000FBE72771E6702670668101228021044874
:10300000FEF7ACFAE670FEBD02000020BC04002012
:10301000001401402DE9F041DFF83C800C460546E4
:10302000012280214046FEF799FA02260B4F05E067
:103030003E7015F8011B0AA0FDF79CF9641EE4B26E
:10304000F6D2084901200022C8704046BDE8F04190
:103050008021FEF783BA0000001401400000002028
:1030600025630000020000200348C389828981781B
:103070004078FFF76FBE00000200002001220649E1
:103080000648FFF71BFB4FF47A7400BF00F098FB73
:10309000204600F0CBFBF9E7160000205428002062
:1030A00010B5502080F31188BFF34F8FBFF36F8F9F
:1030B00001F016FE18B104494FF08050086000205E
:1030C00080F3118810BD000004ED00E030B58FB032
:1030D00028216846FDF764FB14210AA8FDF760FB70
:1030E00001210804CDE90010002402940225049176
:1030F000CDE907504FF4E01009906846FEF700FC58
:1031000008B172B6FEE70F20CDE90A054FF48060E2
:10311000CDE90C4002210AA80E94FEF7E5FA00283A
:1031200001D072B6FEE70FB030BD70470148FEF720
:10313000C7BE0000DC2800200148FEF7C1BE000029
:1031400080270020F0B502681C4B1D4D1D4E1E4F00
:103150001E4C4FF0804C984209D0A04207D06045E9
:1031600005D0A84203D0B04201D0B84204D122F029
:10317000700E4A6842EA0E02984209D0A04207D077
:10318000604505D0A84203D0B04201D0B84203D177
:1031900022F44075CA682A434D6922F080022A430E
:1031A00002608A68C2620A688262984201D0A042C4
:1031B00001D10969016301214161F0BD002C014089
:1031C0000004004000080040000C004000340140B2
:1031D00010B5846842EA032224F47F440A43224360
:1031E000826010BD826822F070020A4342F007013B
:1031F00081607047F0B5026A22F001020262036A40
:1032000042688469124E24F073050C682C4323F045
:1032100002058B682B430D4DA84201D0B04205D169
:1032200023F00807CB683B4323F00403A84201D0F6
:10323000B04205D14D6922F4407215438A692A4390
:1032400042608461496841630362F0BD002C014023
:1032500000340140F0B5026A22F010020262026AF4
:10326000436884690D6824F4E64444EA05248D68C3
:1032700022F0200242EA05120F4D104EA84201D062
:10328000B04206D1CF6822F0800242EA071222F053
:103290004002A84201D0B04207D14D6923F44063F7
:1032A00043EA85038D6943EA850343608461496885
:1032B00081630262F0BD0000002C01400034014037
:1032C000F0B5026A22F480720262026A4368C4693D
:1032D00022F4007224F073050C68124E2C438D68A2
:1032E00042EA05220E4DA84201D0B04206D1CF6875
:1032F00022F4006242EA072222F48062A84201D04E
:10330000B04207D14D6923F4405343EA05138D6958
:1033100043EA05134360C4614968C1630262F0BDBA
:10332000002C01400034014030B5026A22F4805282
:103330000262046A4268C3690D6823F4E64343EA03
:1033400005238D6824F4005444EA0534084DA8424E
:1033500002D0084DA84204D14D6922F4804242EACD
:1033600085124260C36149680164046230BD000097
:10337000002C01400034014010B5036A046A24F0B7
:1033800001040462846924F0F00444EA021423F086
:103390000A020A438461026210BD10B5036A23F079
:1033A000100303628369046A23F4704343EA023220
:1033B00024F0A00343EA01118261016210BD10B53F
:1033C000406A0021C185C184FEF726FF10BD016857
:1033D000CA6822F49072CA6001684A6922F0010248
:1033E0004A61016B012904D10168CA6822F0100208
:1033F000CA60202180F83E1000210163704708B5A3
:1034000090F83E10222901D0022008BD82684FF4B6
:1034100080539A4201D1016921B1816A9A421BD03D
:103420004AB10AE00268816A5268C2F308020A805F
:10343000816A891C08E0026972B10268526802F070
:103440007F020A70816A491C8162C18D491E09048C
:10345000090CC18503D019E002685268F1E70168E0
:10346000CA6822F02002CA600168CA6822F4807229
:10347000CA6001684A6922F001024A61202180F88D
:103480003E10016B012903D0FFF72EF9002008BD83
:10349000002101630168CA6822F01002CA60016855
:1034A0000A68D20602D50A6849680091818DFEF744
:1034B000B2FEEBE770B5044600680169E26821F4EA
:1034C0004051114301612169A068084361690843C3
:1034D0002168CA6841F20C639A430243CA602068BB
:1034E0004169A26921F44071114341611E4920687C
:1034F000884202D1FEF7BEF901E0FEF7ABF900EB1E
:10350000C00101EB0012606864218000B2FBF0F39F
:10351000B3FBF1F36FF018067343B2FBF0F5B2FBA7
:10352000F0F605EB8305322303EB0515B5FBF1F54A
:10353000B6FBF1F605F0F00505EB0615B2FBF0F66B
:10354000B2FBF0F0B0FBF1F06FF01802504306EB65
:10355000800003EB0010B0FBF1F0216800F00F00D9
:103560002844886070BD0000003801408162828577
:10357000C28500210164222280F83E2080F83C10A0
:103580000168CA6842F48072CA6001684A6942F000
:1035900001024A610068C16841F02001C160002059
:1035A00070472DE9F041984617460E460446069DA1
:1035B0001DE0681C1BD02DB1FDF7D6FFA0EB080065
:1035C000A84214D92068C16821F4D071C160206874
:1035D000416921F001014161202084F83D0084F817
:1035E0003E00002084F83C000320BDE8F081206804
:1035F000006836EA000004D00020B842D9D000208C
:10360000F3E70120F9E700000148FEF725BE0000BE
:10361000102800200148FEF71FBE0000542800209B
:10362000F8B52748FEF718FE25490A6810684FF0DC
:103630000003C043840623481ED4D46844F0100419
:10364000D460B0F8002440F2FF34C2F30E02A2426C
:103650000ED20A685468B0F80024B0F80064C2F3CF
:103660000E028518521C62F30E06A0F800642C703E
:103670000A6814685268009209680A68D243D20640
:103680001DD40A6849680091B0F8001441F4004163
:10369000A0F80014B0F80014C1F30E0143540A4816
:1036A000006820B1BDE8F840012100F0D3B9074916
:1036B00001200870BDE8F84005A0FCF75BBEF8BD2E
:1036C00098280020B40000201C00002000000020EA
:1036D0004552524F52210A00FEE70907090E002801
:1036E00004DB00F1E02080F80014704700F00F00C8
:1036F00000F1E02080F8141D704730380A2801D20C
:10370000012070470020704713B516480078022842
:103710001BD003284FF0FF034FF0010269460AD087
:103720001148FFF779F8104800680168C943490655
:10373000FBD400981CBD0D48FFF76EF80B480068DD
:103740000168C9434906FBD4F3E7FF230122694618
:103750000748FFF761F8064800680168C943490651
:10376000FBD4E6E700000020102800209828002065
:1037700054280020EFF30580002800D00120704776
:10378000FDF700FFFFF7A2FCFFF706F9FFF782FA4B
:10379000FFF748FAFFF7C4F9FFF7F8F9FFF75EFA09
:1037A0000348FEF709FBFFF793F800F046F8FEE741
:1037B0008027002001460020842900D0C81C7047C3
:1037C00070B5194C0125E07998B10026012817D071
:1037D00002280DD16078401CC0B26070E189491C9C
:1037E000E181022801D96570E581E6710320A071AD
:1037F00070BDFFF739FCE07800B1E571A57170BDCF
:10380000FFF796FB0220A071207958B1E571207A6C
:10381000401CC0B220720228F1D32672E671072044
:10382000207170BDE67170BD0200002010B500B9B6
:10383000012000F037FD002010BD10B500F07EFD26
:10384000002010BD38B5D0E9011204683AB1C36850
:103850002BB100200090204600F054FE38BD2046D9
:10386000BDE83840002200F029BE00002DE9FF41EC
:103870000D004FF00006CDE9016507461ED000247B
:103880000396501C1FD002B11446FFF773FF694620
:103890004FF01008E8B103AA2846091D01F054F8BA
:1038A000012813D000960398E8B114494FF08050D6
:1038B0000860BFF34F8FBFF36F8F14E08020314655
:1038C0002A46009011E04FF0FF34DEE7CDF800808B
:1038D000E9E722462846091D00F09AFF012808D092
:1038E00054B1402000909DE8070087E80700BDE83C
:1038F000FF81CDF80080F6E70020F3E704ED00E05B
:1039000037B5054682B000200090140000D1012494
:10391000FFF730FF4FF0000388B16A4603A928463D
:1039200000F018FF012811D1009890B10A494FF01A
:1039300080500860BFF34F8FBFF36F8F09E02246BE
:1039400003A9284600F056FE012802D0FF2005B04A
:1039500030BD0020FBE7000004ED00E070B500255D
:1039600004462E46FFF706FF48B15020EFF31185BD
:1039700080F31188BFF34F8FBFF36F8F01E000F02A
:10398000F3FB0021A26809E020690844B0FBF2F3D0
:1039900002FB130063681B5C43B1491C8A42F3D8E5
:1039A000FFF7E8FE58B185F311880AE0626801214B
:1039B0001154E2682168206100FB0216F0E700F074
:1039C000F3FB304670BD2DE9F04105464068C01C50
:1039D00020F00307142000F0F9FA04001FD000269D
:1039E00028682661C4E90207286800F0EFFA6060E1
:1039F00088B12868784300F0E9FA206040B10020DF
:103A000002E061680E54401C29688142F9D806E042
:103A1000606800F0DDFB204600F0DAFB0024204661
:103A2000BDE8F08178B171B102688A420BD8891A79
:103A3000C268B1FBF2F302FB131323B9B1FBF2F13D
:103A400082688A4201D88020704740680022425430
:103A500010467047FEB5064600200D4602900190C4
:103A6000FFF788FE4FF0004498B102A8009001AB28
:103A700001222946304601F0ADF8012811D1029803
:103A800088B10A49E0080860BFF34F8FBFF36F8F1A
:103A900009E001AB01222946304601F035F8012842
:103AA00001D02046FEBD0198FEBD000004ED00E0FF
:103AB000FEB5002506460F462C460195501C06D043
:103AC00002B11446FFF756FE20B1822015E04FF0F8
:103AD000FF34F7E723463946002001AA01F064F9D4
:103AE000012804D00CB1402007E0009506E00198C1
:103AF000002801DA862000E0082000909DE80700F9
:103B000086E80700FEBD7FB50D4604464169B0F961
:103B1000080081B1A16971B1FFF74CFED4E905122B
:103B20008DE80700D4E900102B46226900F0C1FFA0
:103B3000039004B070BDFFF73DFE03A9CDE900017D
:103B4000208A2B4682B2D4E9001000F085FF0128BC
:103B500001D00020EDE70398EBE700002DE9F041EC
:103B6000184C0F46054666692068001D00F0ACFA47
:103B700038B9206890F82C1001208840A169814351
:103B8000A161681C07D137B12168BDE8F0410E483A
:103B9000091D00F0DDBA20683544B5424560216852
:103BA00005D2A068BDE8F041091D00F0B9BA60680F
:103BB000091D00F0B5FA206B854200D22563BDE8EF
:103BC000F081000048000020002A00202DE9F0418B
:103BD000054600F0C9FA2E4C2069401C206120687F
:103BE0002C4F10B1E06940B32DE025602069012819
:103BF00029D1002606EB860007EB800000F082FA50
:103C0000761C072EF6D323488C3000F07BFA21482F
:103C1000A03000F077FA1F48B43000F073FA1D4866
:103C2000C83000F06FFA1B48DC3000F06BFA19481E
:103C30008C3060601430A06005E02068E96AC06ADA
:103C4000884200D82560E06A401CE062E96A0120F1
:103C5000A26988401043A06101EB810007EB80005E
:103C6000291D00F075FA00F09FFAE06900280CD0D9
:103C70002068E96AC06A884207D207494FF080503D
:103C80000860BFF34F8FBFF36F8FBDE8F081000076
:103C9000480000202429002004ED00E030B4026C2C
:103CA0000B46002A0BD0C1681144C1604468A14290
:103CB00001D30168C16030BC1846FCF7FABC30BCC7
:103CC00070472DE9F041856B174604460026026CCB
:103CD00082B1C7B1E068FCF7ECFCE168206C091A1E
:103CE000E1602268914202D26168081AE060022F06
:103CF00016D017E02068A8B9606801F09BF8064666
:103D0000002060600EE0A068FCF7D3FC216CA06886
:103D10000844A0606168884204D32068A06001E084
:103D200005B16D1E6D1CA5633046BDE8F08110B570
:103D3000044690F8590058B101280CD002280FD041
:103D4000502080F31188BFF34F8FBFF36F8FFEE7D2
:103D5000206B00F03DFA2046BDE8104000F038BA74
:103D600010BD00000F4840F6E871420705D0C01DA5
:103D70000C4A20F00700821A891A0B4A00230144DA
:103D8000C2E900030839103A21F0070111604B60C5
:103D90000B600B1AC0E9001393604FF000405360B2
:103DA000D0607047142A002094000020144E154C57
:103DB000A6F1C8074FF08058DFF84C9012E000BF22
:103DC00000F0D2F9F068C568281D00F07DF920697F
:103DD000401E2061E068401EE06000F0E5F92846E2
:103DE000FFF7A5FFE0680028EAD138680128F9D973
:103DF000C9F80080BFF34F8FBFF36F8FF2E7000069
:103E0000EC2900204800002004ED00E00346009863
:103E100029B10260C0E90F31012100F0A7BB0060A9
:103E2000F8E72DE9F0479A46DDE9098481466FF00D
:103E30000303206B03EB82021044089D20F0070669
:103E4000700707D0502080F31188BFF34F8FBFF366
:103E50006F8FFEE723180A5C83F834200A5C12B1E6
:103E6000401C1828F6D3002784F84B70072D00D388
:103E70000625E562C4E91357201D00F04EF904F150
:103E8000180000F04AF92461C5F107006462A061DE
:103E9000676584F8587052464946304600F002F98A
:103EA0002060B8F1000F01D0C8F80040BDE8F087ED
:103EB00030B5114900E011460A688242FBD34B68D5
:103EC0005C18844203D1406818444860084643683F
:103ED0001C18944209D1084C103C2468A24209D015
:103EE00052681A4442600A6812680260814200D037
:103EF000086030BD0460F9E79400002010B5044666
:103F000000F032F9A06B28B15FF0000400F04CF92A
:103F1000204610BD0124F9E706484168096829B127
:103F20004168C968C9684968016370474FF0FF314B
:103F3000FAE700004800002008484068401C4FF0A5
:103F4000500080F3118804D0BFF34F8FBFF36F8F01
:103F5000FEE7BFF34F8FBFF36F8FFEE79C0000209B
:103F60002DE9F041044600F0FFF894F9455004F1C2
:103F7000240609E0606A48B1304600F0A7FF08B1A6
:103F800000F0BEF96D1E6DB2002DF3DC4FF0FF3670
:103F900084F8456000F008F900F0E6F894F9445020
:103FA00004F1100709E0206948B1384600F08EFF9F
:103FB00008B100F0A5F96D1E6DB2002DF3DC84F898
:103FC0004460BDE8F04100F0EFB800002DE9F04199
:103FD0000546002700F0E8F9314E306808B9FFF7D0
:103FE000C1FEF06805424BD1C5B3083568070ED055
:103FF00005F00700C0F108000544680707D050200D
:1040000080F31188BFF34F8FBFF36F8FFEE72DB39F
:104010007068854234D82248103001460C6801E0AF
:1040200020460C466168A94202D221680029F7D1D6
:1040300031688C4224D007682168016060680837C5
:10404000411B10290FD96019420708D0502080F376
:104050001188BFF34F8FBFF36F8FFEE710E0416011
:104060006560FFF725FF61687068401A7060B2688C
:10407000904200D2B060F06801430020C4E9000122
:1040800000F05EFF780707D0502080F31188BFF35F
:104090004F8FBFF36F8FFEE73846BDE8F081000019
:1040A0008400002010B5031F4FF080741C601B1F9C
:1040B00021F001011960191F024B0B6014394038BF
:1040C0000A6010BD393F0008D0E9013201699A60E9
:1040D000D0E901235A604A68824201D182684A606D
:1040E000002202610868401E0860086870470000EE
:1040F000034B036003F15C00086080201060704790
:104100002425002000F108014FF0FF32C0E9011220
:10411000C1600161002101607047002101617047A9
:1041200030B50B685A1C02D000F1080202E00269A7
:1041300004E02246546825689D42FAD953684B60D2
:1041400099608A60516008610168491C016030BD56
:1041500042684A6093688B60936859609160086117
:104160000168491C01607047502080F31188BFF33B
:104170004F8FBFF36F8F0A494868401C4860012881
:104180000CD10848006810F0FF0F07D0502080F3D2
:104190001188BFF34F8FBFF36F8FFEE770470000AA
:1041A0009C00002004ED00E00849486828B1401E4A
:1041B000486001D180F311887047502080F3118846
:1041C000BFF34F8FBFF36F8FFEE700009C0000200E
:1041D00070B5002827D0144DA0F108046168E86884
:1041E000014207D1502080F31188BFF34F8FBFF3F6
:1041F0006F8FFEE722683AB1502080F31188BFF339
:104200004F8FBFF36F8FFEE78143616000F0CCF802
:1042100060686968084468602046FFF749FEBDE8A9
:10422000704000F08DBE70BD840000204FF0E02093
:1042300000210161816105494FF47A720968B1FB7F
:10424000F2F1491E416107210161704744000020DD
:1042500010B5FCF715F8114910280ED300F1E02035
:1042600090F8F0030A78904207D2502080F311882A
:10427000BFF34F8FBFF36F8FFEE70948006889686F
:1042800000F4E060884207D9502080F31188BFF322
:104290004F8FBFF36F8FFEE710BD00009C00002022
:1042A0000CED00E010B5020014D00F48806B38B15F
:1042B000502080F31188BFF34F8FBFF36F8FFEE75D
:1042C00000F072F800211046FFF748FC00F038FEBD
:1042D000002807D105494FF080500860BFF34F8F89
:1042E000BFF36F8F10BD00004800002004ED00E018
:1042F00002498A6A026049694160704748000020AB
:1043000001490120486270474800002010B50C4662
:1043100050B1094909681831FFF702FF2046BDE88E
:1043200010400121FFF71ABC502080F31188BFF321
:104330004F8FBFF36F8FFEE74800002010B586B0A7
:104340000024039405AA04A903A80494FFF7D0FE4F
:10435000DDE903010094CDE9011000230EA110480E
:10436000059A00F0A6FB0F490028486311D05020A1
:1043700080F31188BFF34F8FBFF36F8F4FF0FF3083
:1043800008630120C8614C6106B0BDE8104000F030
:1043900041B806B010BD000049444C450000000083
:1043A000AD3D0008480000200248816B491C816334
:1043B00070470000480000201448816B11B10121B2
:1043C00041627047002141628169B1FA81F1C1F116
:1043D0001F0101EB81020E4951F822306BB101EB54
:1043E000820101F108034A6852684A609A4201D189
:1043F00052684A60D16801607047502080F311888C
:10440000BFF34F8FBFF36F8FFEE70000480000201F
:10441000242900201CB5264908780190FF20087047
:1044200008788DF800009DF800009DF8002000F04D
:10443000F000904207D0502080F31188BFF34F8FD7
:10444000BFF36F8FFEE79DF800001A4B00F050009D
:1044500018700720986005E09DF8002052008DF844
:104460000020401E9DF800201206F5D49860032815
:1044700007D0502080F31188BFF34F8FBFF36F8FA9
:10448000FEE74FF440709860019808700A48016890
:1044900041F470010160016841F070410160FFF773
:1044A000C5FE00205860FBF7B5FE00201CBD0000D3
:1044B00000E400E09C00002020ED00E0F8B5174685
:1044C0000E46050014D0DEB105FB06F04830FFF7BC
:1044D0007DFD04000AD0002084F8460004F1480263
:1044E0003B46314628460094FFF790FC2046F8BD35
:1044F000502080F31188BFF34F8FBFF36F8FFEE71B
:104500000020E3E738B5049D18B153B1CAB181B1B9
:1045100020E0502080F31188BFF34F8FBFF36F8FDF
:10452000FEE7502080F31188BFF34F8FBFF36F8FEA
:10453000FEE7502080F31188BFF34F8FBFF36F8FDA
:10454000FEE739B1502080F31188BFF34F8FBFF3DE
:104550006F8FFEE748241C46012384F846302B4623
:104560000094FFF753FC204638BD000070B50D469F
:10457000040025D0FFF7F8FDD4E90F20216802FBE5
:10458000001161600021A1632168A1600A46D4E99D
:104590000F01401E00FB0121E16021464FF0FF307A
:1045A00001F8440F487004F110008DB1FFF7AAFD27
:1045B00004F12400FFF7A6FDFFF7F6FD012070BD12
:1045C000502080F31188BFF34F8FBFF36F8FFEE74A
:1045D00021690029F0D000F079FC0028ECD00449D2
:1045E0004FF080500860BFF34F8FBFF36F8FE3E74A
:1045F00004ED00E02DE9FF4782B01D468A464FF0EA
:104600000008040003D0BAF1000F08D011E05020D8
:1046100080F31188BFF34F8FBFF36F8FFEE7206CDD
:1046200038B1502080F31188BFF34F8FBFF36F8FE5
:10463000FEE7022D0AD1E06B012807D0502080F35D
:104640001188BFF34F8FBFF36F8FFEE700F03AFB87
:104650003F4F4FF000094FF0805648B9049838B1E9
:10466000502080F31188BFF34F8FBFF36F8FFEE7A9
:10467000FFF77AFDA06BE16B884207D3022D05D0CE
:104680000498D0B1B8F1000F1AD01EE02A46514666
:104690002046FFF716FB616A19B104F1240000F00F
:1046A00015FC20B13E60BFF34F8FBFF36F8FFFF754
:1046B0007BFD012006B0BDE8F087FFF775FD22E025
:1046C0006846FFF715FE4FF00108FFF76DFDFFF795
:1046D0006BFEFFF749FD94F94400401C01D184F8BA
:1046E000449094F94500401C01D184F84590FFF7AF
:1046F0005BFD04A9684600F075F930B12046FFF76C
:104700002FFC00F01DFC0020D4E7FFF72DFDA06B6F
:10471000E16B884213D1FFF747FD04F110000499C3
:10472000FFF7F4FD2046FFF71BFC00F009FC002812
:104730009ED13E60BFF34F8FBFF36F8F98E7FFF7B7
:1047400033FD2046FFF70CFC00F0FAFB90E7000079
:1047500004ED00E02DE9F0471F469046894604002D
:1047600003D0B9F1000F08D011E0502080F3118878
:10477000BFF34F8FBFF36F8FFEE7206C38B150202F
:1047800080F31188BFF34F8FBFF36F8FFEE7022FC7
:104790000AD1E06B012807D0502080F31188BFF3C5
:1047A0004F8FBFF36F8FFEE7FFF752FD5020EFF3FF
:1047B000118680F31188BFF34F8FBFF36F8FA06B0B
:1047C000E16B884206D3022F04D0002086F31188C3
:1047D000BDE8F08794F945503A4649462046FFF730
:1047E00070FA681C04D06D1C84F845500120EDE778
:1047F000606A0028FAD004F1240000F067FB00286A
:10480000F4D0B8F1000FF1D00121C8F80010EDE7A5
:104810002DE9F747002683B08A46040003D0BAF199
:10482000000F08D011E0502080F31188BFF34F8FA4
:10483000BFF36F8FFEE7206C38B1502080F31188F2
:10484000BFF34F8FBFF36F8FFEE700F03BFADFF847
:10485000F4804FF000094FF0805748B9059838B1FF
:10486000502080F31188BFF34F8FBFF36F8FFEE7A7
:10487000FFF77AFCA56BC5B151462046FFF70EFA4B
:104880006D1EA563206950B104F1100000F01EFBFD
:1048900028B1C8F80070BFF34F8FBFF36F8FFFF7D9
:1048A00083FC012006B0BDE8F087059808B11EB171
:1048B00006E0FFF779FC27E06846FFF719FD0126BF
:1048C000FFF772FCFFF770FDFFF74EFC94F9440010
:1048D000401C01D184F8449094F94500401C01D15A
:1048E00084F84590FFF760FC05A9684600F07AF867
:1048F000002820460AD0FFF733FB00F021FB2046BA
:10490000FFF7FCFA0028B3D00020CBE7FFF7F6FA58
:1049100090B104F124000599FFF7F8FC2046FFF759
:104920001FFB00F00DFB0028A2D1C8F80070BFF3F8
:104930004F8FBFF36F8F9BE72046FFF711FB00F00F
:10494000FFFA95E704ED00E02DE9F047904689462F
:10495000040003D0B9F1000F08D011E0502080F31B
:104960001188BFF34F8FBFF36F8FFEE7206C38B114
:10497000502080F31188BFF34F8FBFF36F8FFEE796
:10498000FFF766FC5020EFF3118680F31188BFF328
:104990004F8FBFF36F8FA76BF7B194F9445049461F
:1049A0002046FFF77BF97F1EA763681C04D06D1CAF
:1049B00084F84450012010E020690028FAD004F166
:1049C000100000F083FA0028F4D0B8F1000FF1D005
:1049D0000121C8F80010EDE7002086F31188BDE83A
:1049E000F08700002DE9F0410C46050011D0C4B15C
:1049F000FFF7BAFB174B5A696E682068911B471C7A
:104A000017D02F689B6A9F4219D0964217D801246D
:104A100010E0502080F31188BFF34F8FBFF36F8FEA
:104A2000FEE7502080F31188BFF34F8FBFF36F8FE5
:104A3000FEE70024FFF7B8FB2046BDE8F08188427E
:104A400005D9401A20602846FFF752FCF1E7002004
:104A50002060DCE7480000202DE9FF5F8346DDE9A8
:104A60000E87994616468A469000FFF7AFFA050072
:104A70001CD05C20FFF7AAFA040014D000202563A4
:104A800084F85900CDE90240CDE900874B46324613
:104A900051465846FFF7C5F92046FFF797F8012021
:104AA00004B0BDE8F09F2846FFF792FB4FF0FF30BF
:104AB000F6E7F0B585B0DDE90B640A9DA6B1DCB17F
:104AC0005C2700972663022684F85960002604AF0D
:104AD000CDE90246CDE90057FFF7A3F92046FFF7DD
:104AE00075F8049805B0F0BD502080F31188BFF32D
:104AF0004F8FBFF36F8FFEE7502080F31188BFF315
:104B00004F8FBFF36F8FFEE72DE9F0411F469046B0
:104B10000D46012690B10446FFF726FB0FB1606DEC
:104B2000386094F85800022184F85810B8F1050F45
:104B300016D2DFE808F0150B0E141200502080F397
:104B40001188BFF34F8FBFF36F8FFEE7616D29436D
:104B500001E0616D491C616502E0022803D06565D2
:104B6000012802D02AE0002628E0201DFFF7ACFA39
:104B7000154DE06A0121AA6981401143A9611349D9
:104B800000EB800001EB8000211DFFF7E1FAA06A35
:104B900038B1502080F31188BFF34F8FBFF36F8F70
:104BA000FEE7E06A2968C96A884207D908494FF0D8
:104BB00080500860BFF34F8FBFF36F8FFFF7F4FA99
:104BC0003046BDE8F0810000480000202429002084
:104BD00004ED00E02DE9F0471F46DDF820909246F5
:104BE0000D4604004FF001081AD0FFF731FB5020AA
:104BF000EFF3118680F31188BFF34F8FBFF36F8FF0
:104C00000FB1606D386094F85800022184F8581094
:104C1000BAF1050F16D2DFE80AF0150B0E141200D8
:104C2000502080F31188BFF34F8FBFF36F8FFEE7E3
:104C3000616D294301E0616D491C616502E0022854
:104C400003D06565012803D033E04FF0000830E061
:104C5000A06A38B1502080F31188BFF34F8FBFF3A3
:104C60006F8FFEE7154DA86B012780B1144804F142
:104C7000180100BFFFF76CFAE06A2968C96A884228
:104C800017D9B9F1000F13D0C9F8007011E0201D39
:104C9000FFF71AFAE16AAA6907FA01F01043A8615E
:104CA00001EB81000649B43901EB8000211DE1E7E9
:104CB0006F6286F311884046BDE8F0874800002007
:104CC000D82900200548C16919B1806B18B10020AE
:104CD0007047012070470220704700004800002004
:104CE0002DE9F0412E4C0027A06B40B1206A401CFA
:104CF0002062606A00B101273846BDE8F08166692C
:104D0000761C666113D16068006838B1502080F36A
:104D10001188BFF34F8FBFF36F8FFEE76068A16804
:104D20006160A060A06A401CA062FFF7F5F8206BEC
:104D3000DFF87080864209D36068006880B16068DF
:104D4000C068C568686886420DD220632068C06A62
:104D500000EB800158F821000128CAD90127C8E7D3
:104D60004FF0FF30F1E7281DFFF7AEF9A86A18B140
:104D700005F11800FFF7A8F9E86A0121A26981404E
:104D80001143A16100EB800108EB8100291DFFF7B1
:104D9000DFF9E86A2168C96A8842CDD30127CBE7E9
:104DA00048000020242900202DE9F0411E46154628
:104DB00088460746FFF7D8F91C4C206890F8580041
:104DC000022814D02068416DB94341652168012053
:104DD00081F858005EB101213046FEF7BFFE14494C
:104DE0004FF080500860BFF34F8FBFF36F8FFFF716
:104DF000DBF9FFF7B9F915B12068406D286020682C
:104E000090F85800022801D0002505E02068416D87
:104E100021EA0801416501252168002081F8580038
:104E2000FFF7C2F92846BDE8F081000048000020E5
:104E300004ED00E070B504004FF0000140D0214DBA
:104E40002868844207D0502080F31188BFF34F8F29
:104E5000BFF36F8FFEE7206D38B1401E2065E36C15
:104E6000E26A9A422CD040B12AE0502080F31188A7
:104E7000BFF34F8FBFF36F8FFEE7201DFFF724F9BD
:104E8000114A012150B9E06A00EB800352F8233047
:104E900023B9AB6901FA00F08343AB61E06CE062D7
:104EA000C0F10700A061E06AAB6981401943A961C4
:104EB00000EB800002EB8000211DFFF749F9012182
:104EC000084670BD48000020242900202DE9F0414B
:104ED000C068C468ACB104F118000746FFF7F4F8E5
:104EE000154DA86B0126A0B139461448FFF730F9DB
:104EF000E06A2968C96A88421CD901206E62BDE84F
:104F0000F081502080F31188BFF34F8FBFF36F8F74
:104F1000FEE7201DFFF7D8F8E16AAA6906FA01F05A
:104F20001043A86101EB81000449B43901EB800012
:104F3000211DDBE70020E2E748000020D8290020FF
:104F40002DE9F0472C4D00242746A86B38B1FFF718
:104F50000BF9A86B401EA863A86B40B146E0502037
:104F600080F31188BFF34F8FBFF36F8FFEE729697E
:104F7000224E0120D1B3A6F1B40980463068E8B1D1
:104F8000F068C46804F11800FFF79EF8201DFFF7D1
:104F90009BF8E06AAA6908FA00F11143A96100EBE5
:104FA000800109EB8100211DFFF7D2F8E06A296832
:104FB000C96A8842E2D3C5F82480DFE70CB1FEF766
:104FC000ABFF2C6A44B14646FFF78AFE00B16E6221
:104FD000641EF9D100202862686A38B108490127A7
:104FE00038070860BFF34F8FBFF36F8FFFF7DCF810
:104FF0003846BDE8F087000048000020D82900208E
:1050000004ED00E000C1814001C0804101C0804149
:1050100000C1814001C0804100C1814000C1814088
:1050200001C0804101C0804100C1814000C1814078
:1050300001C0804100C1814001C0804101C0804168
:1050400000C1814001C0804100C1814000C1814058
:1050500001C0804100C1814001C0804101C0804148
:1050600000C1814000C1814001C0804101C0804138
:1050700000C1814001C0804100C1814000C1814028
:1050800001C0804101C0804100C1814000C1814018
:1050900001C0804100C1814001C0804101C0804108
:1050A00000C1814000C1814001C0804101C08041F8
:1050B00000C1814001C0804100C1814000C18140E8
:1050C00001C0804100C1814001C0804101C08041D8
:1050D00000C1814001C0804100C1814000C18140C8
:1050E00001C0804101C0804100C1814000C18140B8
:1050F00001C0804100C1814001C0804101C08041A8
:1051000000C1814000C0C101C30302C2C60607C777
:1051100005C5C404CC0C0DCD0FCFCE0E0ACACB0BE7
:10512000C90908C8D81819D91BDBDA1A1EDEDF1F17
:10513000DD1D1CDC14D4D515D71716D6D21213D307
:1051400011D1D010F03031F133F3F23236F6F737B7
:10515000F53534F43CFCFD3DFF3F3EFEFA3A3BFBA7
:1051600039F9F83828E8E929EB2B2AEAEE2E2FEF57
:105170002DEDEC2CE42425E527E7E62622E2E323C7
:10518000E12120E0A06061A163A3A26266A6A767F7
:10519000A56564A46CACAD6DAF6F6EAEAA6A6BAB67
:1051A00069A9A86878B8B979BB7B7ABABE7E7FBF97
:1051B0007DBDBC7CB47475B577B7B67672B2B37387
:1051C000B17170B050909151935352929656579737
:1051D000559594549C5C5D9D5F9F9E5E5A9A9B5B27
:1051E00099595898884849894B8B8A4A4E8E8F4FD7
:1051F0008D4D4C8C44848545874746868242438347
:105200004181804010000000040000000000000008
:10521000000000001000000004000000000000007A
:10522000000000001000000004000000000000006A
:10523000000000001000000004000000000000005A
:1052400020530008B9100008010000000000000011
:1052500000010000000000000000000048530008AA
:105260004D11000802000000000000008000000056
:105270000000000000000000345300087D300008EA
:10528000030000000000000080000000000000009B
:105290000000000010530008D52E00080000000098
:1052A000000000008000000000000000000000007E
:1052B00000000000000000000102030406070809C6
:1052C0000000000001020304303132333435363738
:1052D000383941424344454640305800303132333A
:1052E000343536373839616263646566403078003A
:1052F000040000080000000000000002000100009F
:10530000103A7474003A7474003A74740000000027
:105310004D6F746F72436F6E74726F6C000000009B
:10532000424C45436F6D6D756E69636174696F6E54
:105330000000000053656E736F72436F6D6D756E84
:1053400069636174696F6E00446174614D616E617F
:10535000676572007453000800000020B40000006C
:105360006C01000828540008B4000020A44000008C
:10537000880100080100000103000800000000008F
:105380000000409C0200000000000000000000003F
:10539000000000000000000000000000000000000D
:1053A00000000000000000000000000001000000FC
:1053B00010000000000000000024F40000000000C5
:1053C00000000000000000000000000000000000DD
:1053D00000000000000000000000000000000000CD
:1053E00000000000000000000000000000000000BD
:1053F00000000000000000000000000000000000AD
:10540000000000000000000000000000000000009C
:1054100000000000AAAAAAAA0000000000000000E4
:08542000000000000000000084
:0400000508000131BD
:00000001FF
